{
  "abi": [
    {
      "type": "constructor",
      "inputs": [
        {
          "name": "_duration",
          "type": "uint256",
          "internalType": "uint256"
        },
        {
          "name": "_goal",
          "type": "uint256",
          "internalType": "uint256"
        }
      ],
      "stateMutability": "nonpayable"
    },
    {
      "type": "function",
      "name": "contribute",
      "inputs": [],
      "outputs": [],
      "stateMutability": "payable"
    },
    {
      "type": "function",
      "name": "contributions",
      "inputs": [
        {
          "name": "",
          "type": "address",
          "internalType": "address"
        }
      ],
      "outputs": [
        {
          "name": "",
          "type": "uint256",
          "internalType": "uint256"
        }
      ],
      "stateMutability": "view"
    },
    {
      "type": "function",
      "name": "end",
      "inputs": [],
      "outputs": [
        {
          "name": "",
          "type": "uint256",
          "internalType": "uint256"
        }
      ],
      "stateMutability": "view"
    },
    {
      "type": "function",
      "name": "goal",
      "inputs": [],
      "outputs": [
        {
          "name": "",
          "type": "uint256",
          "internalType": "uint256"
        }
      ],
      "stateMutability": "view"
    },
    {
      "type": "function",
      "name": "owner",
      "inputs": [],
      "outputs": [
        {
          "name": "",
          "type": "address",
          "internalType": "address"
        }
      ],
      "stateMutability": "view"
    },
    {
      "type": "function",
      "name": "refund",
      "inputs": [],
      "outputs": [],
      "stateMutability": "nonpayable"
    },
    {
      "type": "function",
      "name": "renounceOwnership",
      "inputs": [],
      "outputs": [],
      "stateMutability": "nonpayable"
    },
    {
      "type": "function",
      "name": "totalCollected",
      "inputs": [],
      "outputs": [
        {
          "name": "",
          "type": "uint256",
          "internalType": "uint256"
        }
      ],
      "stateMutability": "view"
    },
    {
      "type": "function",
      "name": "transferOwnership",
      "inputs": [
        {
          "name": "newOwner",
          "type": "address",
          "internalType": "address"
        }
      ],
      "outputs": [],
      "stateMutability": "nonpayable"
    },
    {
      "type": "function",
      "name": "withdraw",
      "inputs": [],
      "outputs": [],
      "stateMutability": "nonpayable"
    },
    {
      "type": "event",
      "name": "Contribute",
      "inputs": [
        {
          "name": "contributor",
          "type": "address",
          "indexed": true,
          "internalType": "address"
        },
        {
          "name": "amount",
          "type": "uint256",
          "indexed": false,
          "internalType": "uint256"
        }
      ],
      "anonymous": false
    },
    {
      "type": "event",
      "name": "OwnershipTransferred",
      "inputs": [
        {
          "name": "previousOwner",
          "type": "address",
          "indexed": true,
          "internalType": "address"
        },
        {
          "name": "newOwner",
          "type": "address",
          "indexed": true,
          "internalType": "address"
        }
      ],
      "anonymous": false
    },
    {
      "type": "error",
      "name": "CollectIsFinished",
      "inputs": []
    },
    {
      "type": "error",
      "name": "CollectNotFinished",
      "inputs": []
    },
    {
      "type": "error",
      "name": "FailedToSendEther",
      "inputs": []
    },
    {
      "type": "error",
      "name": "GoalAlreadyReached",
      "inputs": []
    },
    {
      "type": "error",
      "name": "NoContribution",
      "inputs": []
    },
    {
      "type": "error",
      "name": "NotEnoughFounds",
      "inputs": []
    },
    {
      "type": "error",
      "name": "OwnableInvalidOwner",
      "inputs": [
        {
          "name": "owner",
          "type": "address",
          "internalType": "address"
        }
      ]
    },
    {
      "type": "error",
      "name": "OwnableUnauthorizedAccount",
      "inputs": [
        {
          "name": "account",
          "type": "address",
          "internalType": "address"
        }
      ]
    }
  ],
  "bytecode": {
    "object": "0x608060405234801561001057600080fd5b506040516106ad3803806106ad83398101604081905261002f916100c5565b338061005557604051631e4fbdf760e01b81526000600482015260240160405180910390fd5b61005e81610075565b5061006982426100e9565b60015560025550610110565b600080546001600160a01b038381166001600160a01b0319831681178455604051919092169283917f8be0079c531659141344cd1fd0a4f28419497f9722a3daafe3b4186f6b6457e09190a35050565b600080604083850312156100d857600080fd5b505080516020909101519092909150565b8082018082111561010a57634e487b7160e01b600052601160045260246000fd5b92915050565b61058e8061011f6000396000f3fe6080604052600436106100915760003560e01c80638da5cb5b116100595780638da5cb5b1461012d578063d7bb99ba14610155578063e29eb8361461015d578063efbe1c1c14610173578063f2fde38b1461018957600080fd5b80633ccfd60b1461009657806340193883146100ad57806342e94c90146100d6578063590e1ae314610103578063715018a614610118575b600080fd5b3480156100a257600080fd5b506100ab6101a9565b005b3480156100b957600080fd5b506100c360025481565b6040519081526020015b60405180910390f35b3480156100e257600080fd5b506100c36100f13660046104e6565b60046020526000908152604090205481565b34801561010f57600080fd5b506100ab61024e565b34801561012457600080fd5b506100ab61035e565b34801561013957600080fd5b506000546040516001600160a01b0390911681526020016100cd565b6100ab610372565b34801561016957600080fd5b506100c360035481565b34801561017f57600080fd5b506100c360015481565b34801561019557600080fd5b506100ab6101a43660046104e6565b610429565b6101b1610469565b6001544210806101c45750600254600354105b156101e257604051636420aaad60e01b815260040160405180910390fd5b604051600090339047908381818185875af1925050503d8060008114610224576040519150601f19603f3d011682016040523d82523d6000602084013e610229565b606091505b505090508061024b57604051630dcf35db60e41b815260040160405180910390fd5b50565b60015442101561027157604051636420aaad60e01b815260040160405180910390fd5b600254600354106102955760405163465c128f60e11b815260040160405180910390fd5b3360009081526004602052604081205490036102c457604051631971fbf360e21b815260040160405180910390fd5b33600090815260046020526040812080549082905560038054919283926102ec90849061052c565b9091555050604051600090339083908381818185875af1925050503d8060008114610333576040519150601f19603f3d011682016040523d82523d6000602084013e610338565b606091505b505090508061035a57604051630dcf35db60e41b815260040160405180910390fd5b5050565b610366610469565b6103706000610496565b565b60015442106103945760405163ae443e3d60e01b815260040160405180910390fd5b346000036103b557604051633860c1d960e21b815260040160405180910390fd5b33600090815260046020526040812080543492906103d4908490610545565b9250508190555034600360008282546103ed9190610545565b909155505060405134815233907f906faaf913a60f38b5e8f2d6f5b163239bac2d994fa1a5d21751a51587a940579060200160405180910390a2565b610431610469565b6001600160a01b03811661046057604051631e4fbdf760e01b8152600060048201526024015b60405180910390fd5b61024b81610496565b6000546001600160a01b031633146103705760405163118cdaa760e01b8152336004820152602401610457565b600080546001600160a01b038381166001600160a01b0319831681178455604051919092169283917f8be0079c531659141344cd1fd0a4f28419497f9722a3daafe3b4186f6b6457e09190a35050565b6000602082840312156104f857600080fd5b81356001600160a01b038116811461050f57600080fd5b9392505050565b634e487b7160e01b600052601160045260246000fd5b8181038181111561053f5761053f610516565b92915050565b8082018082111561053f5761053f61051656fea26469706673582212208f666804d55970f44b22f58df19746258bb80f230676adf78dc873147426de5864736f6c63430008170033",
    "linkReferences": {}
  },
  "methodIdentifiers": {
    "contribute()": "d7bb99ba",
    "contributions(address)": "42e94c90",
    "end()": "efbe1c1c",
    "goal()": "40193883",
    "owner()": "8da5cb5b",
    "refund()": "590e1ae3",
    "renounceOwnership()": "715018a6",
    "totalCollected()": "e29eb836",
    "transferOwnership(address)": "f2fde38b",
    "withdraw()": "3ccfd60b"
  },
  "id": 22
}